{
  "contractName": "NftRaffleTicket",
  "abi": [
    {
      "inputs": [
        {
          "internalType": "string",
          "name": "_platformName",
          "type": "string"
        }
      ],
      "stateMutability": "nonpayable",
      "type": "constructor"
    },
    {
      "anonymous": false,
      "inputs": [
        {
          "indexed": true,
          "internalType": "address",
          "name": "previousOwner",
          "type": "address"
        },
        {
          "indexed": true,
          "internalType": "address",
          "name": "newOwner",
          "type": "address"
        }
      ],
      "name": "OwnershipTransferred",
      "type": "event"
    },
    {
      "inputs": [],
      "name": "owner",
      "outputs": [
        {
          "internalType": "address",
          "name": "",
          "type": "address"
        }
      ],
      "stateMutability": "view",
      "type": "function"
    },
    {
      "inputs": [
        {
          "internalType": "uint256",
          "name": "",
          "type": "uint256"
        }
      ],
      "name": "raffleTickets",
      "outputs": [
        {
          "internalType": "uint256",
          "name": "raffleId",
          "type": "uint256"
        },
        {
          "internalType": "string",
          "name": "raffleName",
          "type": "string"
        },
        {
          "internalType": "address",
          "name": "nftContract",
          "type": "address"
        },
        {
          "internalType": "uint256",
          "name": "token_id",
          "type": "uint256"
        },
        {
          "internalType": "uint256",
          "name": "ticketSize",
          "type": "uint256"
        },
        {
          "internalType": "uint256",
          "name": "ticketPrice",
          "type": "uint256"
        },
        {
          "internalType": "uint256",
          "name": "participants",
          "type": "uint256"
        },
        {
          "internalType": "uint256",
          "name": "min_ticketSize",
          "type": "uint256"
        },
        {
          "internalType": "address",
          "name": "winner",
          "type": "address"
        },
        {
          "internalType": "uint256",
          "name": "endDate",
          "type": "uint256"
        },
        {
          "internalType": "address",
          "name": "owner",
          "type": "address"
        },
        {
          "internalType": "enum NftRaffleTicket.RaffleStatus",
          "name": "status",
          "type": "uint8"
        }
      ],
      "stateMutability": "view",
      "type": "function"
    },
    {
      "inputs": [],
      "name": "raffleTicketsLength",
      "outputs": [
        {
          "internalType": "uint256",
          "name": "",
          "type": "uint256"
        }
      ],
      "stateMutability": "view",
      "type": "function"
    },
    {
      "inputs": [],
      "name": "renounceOwnership",
      "outputs": [],
      "stateMutability": "nonpayable",
      "type": "function"
    },
    {
      "inputs": [
        {
          "internalType": "address",
          "name": "newOwner",
          "type": "address"
        }
      ],
      "name": "transferOwnership",
      "outputs": [],
      "stateMutability": "nonpayable",
      "type": "function"
    },
    {
      "inputs": [
        {
          "internalType": "string",
          "name": "raffleName",
          "type": "string"
        },
        {
          "internalType": "address",
          "name": "nftContract",
          "type": "address"
        },
        {
          "internalType": "uint256",
          "name": "token_id",
          "type": "uint256"
        },
        {
          "internalType": "uint256",
          "name": "ticketSize",
          "type": "uint256"
        },
        {
          "internalType": "uint256",
          "name": "ticketPrice",
          "type": "uint256"
        },
        {
          "internalType": "uint256",
          "name": "min_ticketSize",
          "type": "uint256"
        },
        {
          "internalType": "address payable",
          "name": "fromAddress",
          "type": "address"
        },
        {
          "internalType": "uint256",
          "name": "endDate",
          "type": "uint256"
        }
      ],
      "name": "raffleTicketCreated",
      "outputs": [
        {
          "internalType": "uint256",
          "name": "",
          "type": "uint256"
        }
      ],
      "stateMutability": "nonpayable",
      "type": "function"
    },
    {
      "inputs": [
        {
          "internalType": "uint256",
          "name": "raffleId",
          "type": "uint256"
        },
        {
          "internalType": "uint256",
          "name": "numberOfTickets",
          "type": "uint256"
        }
      ],
      "name": "enterParticipant",
      "outputs": [],
      "stateMutability": "payable",
      "type": "function"
    },
    {
      "inputs": [
        {
          "internalType": "uint256",
          "name": "id",
          "type": "uint256"
        }
      ],
      "name": "winnerSelected",
      "outputs": [
        {
          "internalType": "address",
          "name": "",
          "type": "address"
        }
      ],
      "stateMutability": "nonpayable",
      "type": "function"
    },
    {
      "inputs": [
        {
          "internalType": "uint256",
          "name": "id",
          "type": "uint256"
        },
        {
          "internalType": "address",
          "name": "userAddress",
          "type": "address"
        }
      ],
      "name": "claimUserdraw",
      "outputs": [],
      "stateMutability": "payable",
      "type": "function"
    },
    {
      "inputs": [
        {
          "internalType": "uint256",
          "name": "amount",
          "type": "uint256"
        }
      ],
      "name": "changePlatformFee",
      "outputs": [],
      "stateMutability": "nonpayable",
      "type": "function"
    },
    {
      "inputs": [
        {
          "internalType": "address",
          "name": "_tokenAddress",
          "type": "address"
        }
      ],
      "name": "withdrawTokens",
      "outputs": [],
      "stateMutability": "nonpayable",
      "type": "function"
    },
    {
      "inputs": [
        {
          "internalType": "uint256",
          "name": "_amount",
          "type": "uint256"
        }
      ],
      "name": "withdraw",
      "outputs": [],
      "stateMutability": "nonpayable",
      "type": "function"
    },
    {
      "inputs": [
        {
          "internalType": "address",
          "name": "userAddress",
          "type": "address"
        }
      ],
      "name": "getRaffleTicketsByUser",
      "outputs": [
        {
          "internalType": "uint256[]",
          "name": "",
          "type": "uint256[]"
        }
      ],
      "stateMutability": "view",
      "type": "function"
    },
    {
      "inputs": [
        {
          "internalType": "uint256",
          "name": "id",
          "type": "uint256"
        }
      ],
      "name": "getRaffleTicketsByRaffle",
      "outputs": [
        {
          "internalType": "uint256[]",
          "name": "",
          "type": "uint256[]"
        }
      ],
      "stateMutability": "view",
      "type": "function"
    },
    {
      "inputs": [
        {
          "internalType": "uint256",
          "name": "id",
          "type": "uint256"
        }
      ],
      "name": "getRaffleParticipant",
      "outputs": [
        {
          "internalType": "address",
          "name": "",
          "type": "address"
        }
      ],
      "stateMutability": "view",
      "type": "function"
    },
    {
      "inputs": [
        {
          "internalType": "uint256",
          "name": "id",
          "type": "uint256"
        }
      ],
      "name": "raffleStatus",
      "outputs": [
        {
          "internalType": "enum NftRaffleTicket.RaffleStatus",
          "name": "",
          "type": "uint8"
        }
      ],
      "stateMutability": "view",
      "type": "function"
    },
    {
      "inputs": [
        {
          "internalType": "uint256",
          "name": "id",
          "type": "uint256"
        },
        {
          "internalType": "address",
          "name": "userAddress",
          "type": "address"
        }
      ],
      "name": "claimBalance",
      "outputs": [
        {
          "internalType": "uint256",
          "name": "",
          "type": "uint256"
        }
      ],
      "stateMutability": "view",
      "type": "function"
    },
    {
      "inputs": [
        {
          "internalType": "uint256",
          "name": "id",
          "type": "uint256"
        }
      ],
      "name": "getRaffle",
      "outputs": [
        {
          "components": [
            {
              "internalType": "uint256",
              "name": "raffleId",
              "type": "uint256"
            },
            {
              "internalType": "string",
              "name": "raffleName",
              "type": "string"
            },
            {
              "internalType": "address",
              "name": "nftContract",
              "type": "address"
            },
            {
              "internalType": "uint256",
              "name": "token_id",
              "type": "uint256"
            },
            {
              "internalType": "uint256",
              "name": "ticketSize",
              "type": "uint256"
            },
            {
              "internalType": "uint256",
              "name": "ticketPrice",
              "type": "uint256"
            },
            {
              "internalType": "uint256",
              "name": "participants",
              "type": "uint256"
            },
            {
              "internalType": "uint256",
              "name": "min_ticketSize",
              "type": "uint256"
            },
            {
              "internalType": "address",
              "name": "winner",
              "type": "address"
            },
            {
              "internalType": "uint256",
              "name": "endDate",
              "type": "uint256"
            },
            {
              "internalType": "address",
              "name": "owner",
              "type": "address"
            },
            {
              "internalType": "enum NftRaffleTicket.RaffleStatus",
              "name": "status",
              "type": "uint8"
            }
          ],
          "internalType": "struct NftRaffleTicket.Raffle",
          "name": "",
          "type": "tuple"
        }
      ],
      "stateMutability": "view",
      "type": "function"
    }
  ],
  "bytecode": "0x6080604052600160025560006003553480156200001b57600080fd5b5060405162001eae38038062001eae8339810160408190526200003e9162000142565b600080546001600160a01b031916339081178255604051909182917f8be0079c531659141344cd1fd0a4f28419497f9722a3daafe3b4186f6b6457e0908290a3508051620000949060019060208401906200009c565b50506200026b565b828054620000aa9062000218565b90600052602060002090601f016020900481019282620000ce576000855562000119565b82601f10620000e957805160ff191683800117855562000119565b8280016001018555821562000119579182015b8281111562000119578251825591602001919060010190620000fc565b50620001279291506200012b565b5090565b5b808211156200012757600081556001016200012c565b6000602080838503121562000155578182fd5b82516001600160401b03808211156200016c578384fd5b818501915085601f83011262000180578384fd5b81518181111562000195576200019562000255565b604051601f8201601f19908116603f01168101908382118183101715620001c057620001c062000255565b816040528281528886848701011115620001d8578687fd5b8693505b82841015620001fb5784840186015181850187015292850192620001dc565b828411156200020c57868684830101525b98975050505050505050565b600181811c908216806200022d57607f821691505b602082108114156200024f57634e487b7160e01b600052602260045260246000fd5b50919050565b634e487b7160e01b600052604160045260246000fd5b611c33806200027b6000396000f3fe6080604052600436106101095760003560e01c8063b3eb395d11610095578063dc4d0b5811610064578063dc4d0b58146102f0578063e481287e14610328578063e4dafec914610348578063f2fde38b14610375578063fa1def011461039557600080fd5b8063b3eb395d1461025f578063ce4d424814610283578063d15d0696146102b0578063d7a5791a146102d057600080fd5b80638da5cb5b116100dc5780638da5cb5b146101785780639ec2f798146101af5780639f1f265e146101e5578063a09427131461022c578063b075af721461023f57600080fd5b80632e1a7d4d1461010e57806349df728c14610130578063715018a614610150578063887b485114610165575b600080fd5b34801561011a57600080fd5b5061012e6101293660046117a6565b6103b5565b005b34801561013c57600080fd5b5061012e61014b36600461166c565b61045f565b34801561015c57600080fd5b5061012e6105a9565b61012e6101733660046117d6565b61061d565b34801561018457600080fd5b506000546001600160a01b03165b6040516001600160a01b0390911681526020015b60405180910390f35b3480156101bb57600080fd5b506101926101ca3660046117a6565b6000908152600560205260409020546001600160a01b031690565b3480156101f157600080fd5b5061021f6102003660046117a6565b6000908152600460205260409020600a0154600160a01b900460ff1690565b6040516101a691906118d7565b61012e61023a366004611805565b610756565b34801561024b57600080fd5b5061019261025a3660046117a6565b610976565b34801561026b57600080fd5b5061027560035481565b6040519081526020016101a6565b34801561028f57600080fd5b506102a361029e3660046117a6565b610d9d565b6040516101a69190611893565b3480156102bc57600080fd5b506102756102cb3660046117d6565b610dff565b3480156102dc57600080fd5b5061012e6102eb3660046117a6565b610e75565b3480156102fc57600080fd5b5061031061030b3660046117a6565b610ea4565b6040516101a69c9b9a99989796959493929190611a54565b34801561033457600080fd5b506102756103433660046116a8565b610f9f565b34801561035457600080fd5b506103686103633660046117a6565b6111e8565b6040516101a69190611977565b34801561038157600080fd5b5061012e61039036600461166c565b61136f565b3480156103a157600080fd5b506102a36103b036600461166c565b611459565b6000546001600160a01b031633146103e85760405162461bcd60e51b81526004016103df90611942565b60405180910390fd5b600080546040516001600160a01b039091169083908381818185875af1925050503d8060008114610435576040519150601f19603f3d011682016040523d82523d6000602084013e61043a565b606091505b505090508061045b5760405162461bcd60e51b81526004016103df906118e5565b5050565b6000546001600160a01b031633146104895760405162461bcd60e51b81526004016103df90611942565b806001600160a01b03811663a9059cbb6104ab6000546001600160a01b031690565b6040516370a0823160e01b81523060048201526001600160a01b038516906370a082319060240160206040518083038186803b1580156104ea57600080fd5b505afa1580156104fe573d6000803e3d6000fd5b505050506040513d601f19601f8201168201806040525081019061052291906117be565b6040516001600160e01b031960e085901b1681526001600160a01b0390921660048301526024820152604401602060405180830381600087803b15801561056857600080fd5b505af115801561057c573d6000803e3d6000fd5b505050506040513d601f19601f820116820180604052508101906105a09190611688565b61045b57600080fd5b6000546001600160a01b031633146105d35760405162461bcd60e51b81526004016103df90611942565b600080546040516001600160a01b03909116907f8be0079c531659141344cd1fd0a4f28419497f9722a3daafe3b4186f6b6457e0908390a3600080546001600160a01b0319169055565b60046000838152600460208190526040909120600a0154600160a01b900460ff169081111561065c57634e487b7160e01b600052602160045260246000fd5b1461066657600080fd5b6000828152600560205260409020546001600160a01b0316331461068957600080fd5b60008281526004602052604090206007810154600690910154106106ac57600080fd5b6001600160a01b0381166000908152600860209081526040808320858452909152902054348110156106dd57600080fd5b6000826001600160a01b03168260405160006040518083038185875af1925050503d806000811461072a576040519150601f19603f3d011682016040523d82523d6000602084013e61072f565b606091505b50509050806107505760405162461bcd60e51b81526004016103df906118e5565b50505050565b6000828152600460205260409020600901544211156107b75760405162461bcd60e51b815260206004820152601a60248201527f526166666c6520636f6d7065746974696f6e206973204f76657200000000000060448201526064016103df565b600081116108075760405162461bcd60e51b815260206004820181905260248201527f4d696e696d756d2031205469636b65742073686f756c6420626520746865726560448201526064016103df565b60008281526004602052604090206005015461082390826114c3565b3410156108725760405162461bcd60e51b815260206004820152601a60248201527f4d696e696d756d20416d6f756e7420697320526571756972656400000000000060448201526064016103df565b33600090815260086020908152604080832085845290915290205461089790346114d6565b3360009081526008602090815260408083208684529091528120919091555b6108c1600183611b22565b8110156109505760006108d26114e2565b6000858152600660208181526040808420805460018082018355918652838620018690553385526007835281852080548083018255908652838620018690558985526004909252909220015491925061092b9190611ad7565b600085815260046020526040902060060155508061094881611b74565b9150506108b6565b50506000908152600460205260409020600a01805460ff60a01b1916600160a01b179055565b60008181526004602052604081206009015442116109e15760405162461bcd60e51b815260206004820152602260248201527f526166666c6520636f6d7065746974696f6e206973204e6f74204f7665722079604482015261195d60f21b60648201526084016103df565b6000828152600460205260409020600a01546001600160a01b0316331480610a22575033610a176000546001600160a01b031690565b6001600160a01b0316145b610a2b57600080fd5b6000828152600460205260409020600781015460069091015410610cdd576000610a5483610d9d565b90506000815142604051602001610a6d91815260200190565b6040516020818303038152906040528051906020012060001c610a909190611b8f565b90506000610ada838381518110610ab757634e487b7160e01b600052603260045260246000fd5b60200260200101516000908152600560205260409020546001600160a01b031690565b60008681526004602081905260409182902060028101546003909101549251632142170760e11b815230928101929092526001600160a01b03808516602484015260448301939093529293509116906342842e0e90606401600060405180830381600087803b158015610b4c57600080fd5b505af1158015610b60573d6000803e3d6000fd5b50505060008681526004602052604081206006810154600590910154919250610b8991906114c3565b90506000610bad6064610ba7600254856114c390919063ffffffff16565b90611516565b9050600033610bbc8484611522565b604051600081818185875af1925050503d8060008114610bf8576040519150601f19603f3d011682016040523d82523d6000602084013e610bfd565b606091505b5050905080610c1e5760405162461bcd60e51b81526004016103df906118e5565b600080546040516001600160a01b039091169084908381818185875af1925050503d8060008114610c6b576040519150601f19603f3d011682016040523d82523d6000602084013e610c70565b606091505b5050905080610c915760405162461bcd60e51b81526004016103df906118e5565b505050600095865250600460205260409094206008810180546001600160a01b0319166001600160a01b038716179055600a01805460ff60a01b1916600360a01b179055509192915050565b6000828152600460208190526040808320600a8101805460ff60a01b1916600160a21b17905560028101546003909101548251632142170760e11b81523094810194909452336024850152604484015290516001600160a01b03909116926342842e0e926064808201939182900301818387803b158015610d5d57600080fd5b505af1158015610d71573d6000803e3d6000fd5b5050506000928352505060046020526040812060080180546001600160a01b031916905590565b919050565b600081815260066020908152604091829020805483518184028101840190945280845260609392830182828015610df357602002820191906000526020600020905b815481526020019060010190808311610ddf575b50505050509050919050565b60008281526004602081905260408220600a0154600160a01b900460ff1681811115610e3b57634e487b7160e01b600052602160045260246000fd5b1415610e6b57506001600160a01b0381166000908152600860209081526040808320858452909152902054610e6f565b5060005b92915050565b6000546001600160a01b03163314610e9f5760405162461bcd60e51b81526004016103df90611942565b600255565b60046020526000908152604090208054600182018054919291610ec690611b39565b80601f0160208091040260200160405190810160405280929190818152602001828054610ef290611b39565b8015610f3f5780601f10610f1457610100808354040283529160200191610f3f565b820191906000526020600020905b815481529060010190602001808311610f2257829003601f168201915b50505050600283015460038401546004850154600586015460068701546007880154600889015460098a0154600a909a015498996001600160a01b039788169996985094969395929491939081169290811690600160a01b900460ff168c565b604051632142170760e11b81526001600160a01b03838116600483015230602483015260448201889052600091908916906342842e0e90606401600060405180830381600087803b158015610ff357600080fd5b505af1158015611007573d6000803e3d6000fd5b5050505060006110156114e2565b90506040518061018001604052808281526020018b81526020018a6001600160a01b031681526020018981526020018881526020018781526020016000815260200186815260200160006001600160a01b03168152602001848152602001856001600160a01b03168152602001600060048111156110a357634e487b7160e01b600052602160045260246000fd5b60048111156110c257634e487b7160e01b600052602160045260246000fd5b905260008281526004602090815260409091208251815582820151805191926110f39260018501929091019061152e565b5060408201516002820180546001600160a01b03199081166001600160a01b039384161790915560608401516003840155608084015160048085019190915560a0850151600585015560c0850151600685015560e0850151600785015561010085015160088501805484169185169190911790556101208501516009850155610140850151600a8501805493841691909416908117845561016086015193926001600160a81b0319161790600160a01b9084908111156111c357634e487b7160e01b600052602160045260246000fd5b0217905550506003546111d891506001611ad7565b6003559998505050505050505050565b6111f06115b2565b60046000838152602001908152602001600020604051806101800160405290816000820154815260200160018201805461122990611b39565b80601f016020809104026020016040519081016040528092919081815260200182805461125590611b39565b80156112a25780601f10611277576101008083540402835291602001916112a2565b820191906000526020600020905b81548152906001019060200180831161128557829003601f168201915b505050918352505060028201546001600160a01b03908116602083015260038301546040830152600480840154606084015260058401546080840152600684015460a0840152600784015460c08401526008840154821660e08401526009840154610100840152600a84015491821661012084015261014090920191600160a01b90910460ff169081111561134757634e487b7160e01b600052602160045260246000fd5b600481111561136657634e487b7160e01b600052602160045260246000fd5b90525092915050565b6000546001600160a01b031633146113995760405162461bcd60e51b81526004016103df90611942565b6001600160a01b0381166113fe5760405162461bcd60e51b815260206004820152602660248201527f4f776e61626c653a206e6577206f776e657220697320746865207a65726f206160448201526564647265737360d01b60648201526084016103df565b600080546040516001600160a01b03808516939216917f8be0079c531659141344cd1fd0a4f28419497f9722a3daafe3b4186f6b6457e091a3600080546001600160a01b0319166001600160a01b0392909216919091179055565b6001600160a01b038116600090815260076020908152604091829020805483518184028101840190945280845260609392830182828015610df35760200282019190600052602060002090815481526020019060010190808311610ddf5750505050509050919050565b60006114cf8284611b03565b9392505050565b60006114cf8284611ad7565b600080426040516020016114f891815260200190565b60408051601f19818403018152919052805160209091012092915050565b60006114cf8284611aef565b60006114cf8284611b22565b82805461153a90611b39565b90600052602060002090601f01602090048101928261155c57600085556115a2565b82601f1061157557805160ff19168380011785556115a2565b828001600101855582156115a2579182015b828111156115a2578251825591602001919060010190611587565b506115ae92915061164c565b5090565b604051806101800160405280600081526020016060815260200160006001600160a01b03168152602001600081526020016000815260200160008152602001600081526020016000815260200160006001600160a01b031681526020016000815260200160006001600160a01b031681526020016000600481111561164757634e487b7160e01b600052602160045260246000fd5b905290565b5b808211156115ae576000815560010161164d565b8035610d9881611be5565b60006020828403121561167d578081fd5b81356114cf81611be5565b600060208284031215611699578081fd5b815180151581146114cf578182fd5b600080600080600080600080610100898b0312156116c4578384fd5b883567ffffffffffffffff808211156116db578586fd5b818b0191508b601f8301126116ee578586fd5b81358181111561170057611700611bcf565b604051601f8201601f19908116603f0116810190838211818310171561172857611728611bcf565b816040528281528e6020848701011115611740578889fd5b826020860160208301378860208483010152809c50505050505061176660208a01611661565b965060408901359550606089013594506080890135935060a0890135925061179060c08a01611661565b915060e089013590509295985092959890939650565b6000602082840312156117b7578081fd5b5035919050565b6000602082840312156117cf578081fd5b5051919050565b600080604083850312156117e8578182fd5b8235915060208301356117fa81611be5565b809150509250929050565b60008060408385031215611817578182fd5b50508035926020909101359150565b6005811061184457634e487b7160e01b600052602160045260246000fd5b9052565b60008151808452815b8181101561186d57602081850181015186830182015201611851565b8181111561187e5782602083870101525b50601f01601f19169290920160200192915050565b6020808252825182820181905260009190848201906040850190845b818110156118cb578351835292840192918401916001016118af565b50909695505050505050565b60208101610e6f8284611826565b6020808252603a908201527f416464726573733a20756e61626c6520746f2073656e642076616c75652c207260408201527f6563697069656e74206d61792068617665207265766572746564000000000000606082015260800190565b6020808252818101527f4f776e61626c653a2063616c6c6572206973206e6f7420746865206f776e6572604082015260600190565b6020815281516020820152600060208301516101808060408501526119a06101a0850183611848565b915060408501516119bc60608601826001600160a01b03169052565b5060608501516080850152608085015160a085015260a085015160c085015260c085015160e085015260e0850151610100818187015280870151915050610120611a10818701836001600160a01b03169052565b860151610140868101919091528601519050610160611a39818701836001600160a01b03169052565b8601519050611a4a85830182611826565b5090949350505050565b60006101808e8352806020840152611a6e8184018f611848565b91505060018060a01b03808d1660408401528b60608401528a60808401528960a08401528860c08401528760e08401528087166101008401528561012084015280851661014084015250611ac6610160830184611826565b9d9c50505050505050505050505050565b60008219821115611aea57611aea611ba3565b500190565b600082611afe57611afe611bb9565b500490565b6000816000190483118215151615611b1d57611b1d611ba3565b500290565b600082821015611b3457611b34611ba3565b500390565b600181811c90821680611b4d57607f821691505b60208210811415611b6e57634e487b7160e01b600052602260045260246000fd5b50919050565b6000600019821415611b8857611b88611ba3565b5060010190565b600082611b9e57611b9e611bb9565b500690565b634e487b7160e01b600052601160045260246000fd5b634e487b7160e01b600052601260045260246000fd5b634e487b7160e01b600052604160045260246000fd5b6001600160a01b0381168114611bfa57600080fd5b5056fea26469706673582212207f3b3dcbd417bd31d53925570fe23f61457c323ab51d39c869ccb3ae515ede5164736f6c63430008040033",
  "immutableReferences": {},
  "source": "// SPDX-License-Identifier: MIT\n\npragma solidity ^0.8.0;\n\nimport \"@openzeppelin/contracts/access/Ownable.sol\";\nimport \"@openzeppelin/contracts/token/ERC721/ERC721.sol\";\nimport \"@openzeppelin/contracts/token/ERC721/IERC721Receiver.sol\";\nimport \"@openzeppelin/contracts/utils/math/SafeMath.sol\";\nimport \"@openzeppelin/contracts/token/ERC20/IERC20.sol\";\nimport \"@openzeppelin/contracts/utils/Address.sol\";\n\n\ncontract NftRaffleTicket is Ownable {\n  using SafeMath for uint256; \n  using Address for address payable;\n  string platformName;\n\n  constructor(string memory _platformName){\n    platformName = _platformName;\n  }\n  \n  enum RaffleStatus {\n    INITIALIZE,\n    ONGOING,\n    WINNER_NOT_DECLARED,\n    WINNER_DECLARED,\n    DRAW\n  }\n\n  struct Raffle {\n    uint256 raffleId;\n    string raffleName;\n    address nftContract;\n    uint256 token_id;\n    uint256 ticketSize;\n    uint256 ticketPrice;\n    uint256 participants;\n    uint256 min_ticketSize;\n    address winner;\n    uint endDate;\n    address owner;\n    RaffleStatus status;\n  }\n\n  uint platformFee = 1;\n  uint256 public raffleTicketsLength = 0;\n  mapping(uint256 => Raffle) public raffleTickets;\n  mapping(uint256 => address) raffleParticipant;\n  mapping(uint => uint[]) raffleTicketsById;\n  mapping(address => uint[]) raffleTicketsByParticipant;\n  mapping(address => mapping(uint => uint)) participantAmount;\n\n////////////////////// External Function //////////////////////\n  function raffleTicketCreated(\n    string memory raffleName,\n    address nftContract,\n    uint256 token_id,\n    uint256 ticketSize,\n    uint256 ticketPrice,\n    uint256 min_ticketSize,\n    address payable fromAddress,\n    uint endDate\n  ) external returns(uint) {\n    ERC721(nftContract).safeTransferFrom(fromAddress, address(this), token_id);\n    uint raffleId = random();\n    raffleTickets[raffleId] = Raffle (\n      raffleId,\n      raffleName,\n      nftContract,\n      token_id,\n      ticketSize,\n      ticketPrice,\n      0,\n      min_ticketSize,\n      address(0),\n      endDate,\n      fromAddress,\n      RaffleStatus(0)\n    );\n    raffleTicketsLength = raffleTicketsLength + 1;\n    return raffleId;\n  }\n\n\nfunction enterParticipant(uint256 raffleId, uint256 numberOfTickets) external payable {\n    require(block.timestamp <= raffleTickets[raffleId].endDate, \"Raffle competition is Over\");\n    require(numberOfTickets > 0, \"Minimum 1 Ticket should be there\");\n    require(msg.value >= (raffleTickets[raffleId].ticketPrice).mul(numberOfTickets), \"Minimum Amount is Required\");\n    participantAmount[_msgSender()][raffleId] = (participantAmount[_msgSender()][raffleId]).add(msg.value);\n    for (uint256 i = 0; i < numberOfTickets-1; i++) {\n      uint ticketId = random();\n      raffleTicketsById[raffleId].push(ticketId);\n      raffleTicketsByParticipant[_msgSender()].push(ticketId);\n      raffleTickets[raffleId].participants = raffleTickets[raffleId].participants + 1;\n    }\n    raffleTickets[raffleId].status = RaffleStatus(1);\n}\n\nfunction winnerSelected(uint256 id) external returns(address) {\n    require(block.timestamp > raffleTickets[id].endDate, \"Raffle competition is Not Over yet\");\n    require(raffleTickets[id].owner == msg.sender || owner() == msg.sender);\n    if (raffleTickets[id].participants >= raffleTickets[id].min_ticketSize){\n       uint[] memory ticketId = getRaffleTicketsByRaffle(id);\n       uint randomPosition = uint(keccak256(abi.encodePacked(block.timestamp))) % ticketId.length;\n       address winner = getRaffleParticipant(ticketId[randomPosition]);\n       ERC721(raffleTickets[id].nftContract).safeTransferFrom(address(this), winner, raffleTickets[id].token_id);\n       uint totalAmount = (raffleTickets[id].ticketPrice).mul(raffleTickets[id].participants);\n       uint platformAmount = totalAmount.mul(platformFee).div(100);\n       (bool success, ) = msg.sender.call{ value: totalAmount.sub(platformAmount) }(\"\");\n       require(success, \"Address: unable to send value, recipient may have reverted\");\n       (bool ownerPay, ) = owner().call{ value: platformAmount }(\"\");\n       require(ownerPay, \"Address: unable to send value, recipient may have reverted\");\n       raffleTickets[id].winner = winner;\n       raffleTickets[id].status = RaffleStatus(3);\n       return winner;\n    } else {\n      raffleTickets[id].status = RaffleStatus(4);\n      ERC721(raffleTickets[id].nftContract).safeTransferFrom(address(this), _msgSender(), raffleTickets[id].token_id);\n      raffleTickets[id].winner = address(0);\n      return raffleTickets[id].winner;\n  }\n}\n\nfunction claimUserdraw(uint id, address userAddress) external payable{\n  require(raffleTickets[id].status == RaffleStatus(4));\n  require(raffleParticipant[id] == msg.sender);\n  require(raffleTickets[id].participants < raffleTickets[id].min_ticketSize);\n  uint amount = participantAmount[userAddress][id];\n  require(msg.value <= amount);\n  (bool userWithdraw, ) = userAddress.call{ value: amount }(\"\");\n  require(userWithdraw, \"Address: unable to send value, recipient may have reverted\");\n}\n\nfunction changePlatformFee(uint amount) external onlyOwner {\n  platformFee = amount;\n}\n\nfunction withdrawTokens(address _tokenAddress) public onlyOwner {\n    IERC20 tokenAddress = IERC20(_tokenAddress);\n    require(tokenAddress.transfer(owner(), tokenAddress.balanceOf(address(this))));\n}\n\nfunction withdraw(uint _amount) public onlyOwner {\n    (bool extravalue, ) = owner().call{ value: _amount }(\"\");\n    require(extravalue, \"Address: unable to send value, recipient may have reverted\");\n}\n\n////////////////////// View Function //////////////////////\nfunction getRaffleTicketsByUser(address userAddress) public view returns(uint[] memory){\n  return raffleTicketsByParticipant[userAddress];\n}\n\nfunction getRaffleTicketsByRaffle(uint id) public view returns(uint[] memory){\n  return raffleTicketsById[id];\n} \n\nfunction getRaffleParticipant(uint id) public view returns (address){\n  return raffleParticipant[id];\n}\n\nfunction raffleStatus(uint id) public view returns(RaffleStatus) {\n    return raffleTickets[id].status;\n}\n\nfunction claimBalance(uint id, address userAddress) public view returns(uint) {\n  if (raffleTickets[id].status == RaffleStatus(4)) {\n    return participantAmount[userAddress][id];\n  } else {\n    return 0;\n  }\n}\n\nfunction getRaffle(uint id) public view returns(Raffle memory) {\n  return raffleTickets[id];\n}\n\n////////////////////// Internal Function //////////////////////\n\nfunction random() private view returns (uint) {\n    uint randomHash = uint(keccak256(abi.encodePacked(block.timestamp)));\n    return randomHash;\n} \n}",
  "sourcePath": "/Users/akshaypatil/Documents/werewolf/nft-lottery/nft-raffle-tickets/nft-raffle-tickets/contracts/NftRaffleTicket.sol",
  "compiler": {
    "name": "solc",
    "version": "0.8.4+commit.c7e474f2.Emscripten.clang"
  },
  "schemaVersion": "3.3.1",
  "updatedAt": "2021-05-21T12:42:19.632Z",
  "devdoc": {
    "kind": "dev",
    "methods": {
      "owner()": {
        "details": "Returns the address of the current owner."
      },
      "renounceOwnership()": {
        "details": "Leaves the contract without owner. It will not be possible to call `onlyOwner` functions anymore. Can only be called by the current owner. NOTE: Renouncing ownership will leave the contract without an owner, thereby removing any functionality that is only available to the owner."
      },
      "transferOwnership(address)": {
        "details": "Transfers ownership of the contract to a new account (`newOwner`). Can only be called by the current owner."
      }
    },
    "version": 1
  },
  "userdoc": {
    "kind": "user",
    "methods": {},
    "version": 1
  }
}