{
  "contractName": "NftRaffleTicket",
  "abi": [
    {
      "inputs": [],
      "stateMutability": "nonpayable",
      "type": "constructor"
    },
    {
      "anonymous": false,
      "inputs": [
        {
          "indexed": true,
          "internalType": "uint256",
          "name": "raffleId",
          "type": "uint256"
        },
        {
          "indexed": false,
          "internalType": "uint256",
          "name": "numberOfTickets",
          "type": "uint256"
        },
        {
          "indexed": false,
          "internalType": "address",
          "name": "userAddress",
          "type": "address"
        },
        {
          "indexed": false,
          "internalType": "uint256[]",
          "name": "ticketId",
          "type": "uint256[]"
        },
        {
          "indexed": false,
          "internalType": "uint256",
          "name": "timestamp",
          "type": "uint256"
        }
      ],
      "name": "EnterParticipant",
      "type": "event"
    },
    {
      "anonymous": false,
      "inputs": [
        {
          "indexed": true,
          "internalType": "address",
          "name": "previousOwner",
          "type": "address"
        },
        {
          "indexed": true,
          "internalType": "address",
          "name": "newOwner",
          "type": "address"
        }
      ],
      "name": "OwnershipTransferred",
      "type": "event"
    },
    {
      "anonymous": false,
      "inputs": [
        {
          "indexed": true,
          "internalType": "uint256",
          "name": "raffleId",
          "type": "uint256"
        },
        {
          "indexed": false,
          "internalType": "string",
          "name": "raffleName",
          "type": "string"
        },
        {
          "indexed": false,
          "internalType": "address",
          "name": "nftContract",
          "type": "address"
        },
        {
          "indexed": false,
          "internalType": "uint256",
          "name": "nftId",
          "type": "uint256"
        },
        {
          "indexed": false,
          "internalType": "uint256",
          "name": "nftPrice",
          "type": "uint256"
        },
        {
          "indexed": false,
          "internalType": "uint256",
          "name": "ticketSize",
          "type": "uint256"
        },
        {
          "indexed": false,
          "internalType": "uint256",
          "name": "ticketPrice",
          "type": "uint256"
        },
        {
          "indexed": false,
          "internalType": "uint256",
          "name": "min_ticketSize",
          "type": "uint256"
        },
        {
          "indexed": false,
          "internalType": "address",
          "name": "fromAddress",
          "type": "address"
        },
        {
          "indexed": false,
          "internalType": "uint256",
          "name": "endDate",
          "type": "uint256"
        },
        {
          "indexed": false,
          "internalType": "uint256",
          "name": "timestamp",
          "type": "uint256"
        }
      ],
      "name": "RaffleTicketCreated",
      "type": "event"
    },
    {
      "anonymous": false,
      "inputs": [
        {
          "indexed": true,
          "internalType": "uint256",
          "name": "raffleId",
          "type": "uint256"
        },
        {
          "indexed": false,
          "internalType": "address",
          "name": "winnerAddress",
          "type": "address"
        },
        {
          "indexed": false,
          "internalType": "uint256",
          "name": "ticketId",
          "type": "uint256"
        },
        {
          "indexed": false,
          "internalType": "uint256",
          "name": "timestamp",
          "type": "uint256"
        }
      ],
      "name": "WinnerSelected",
      "type": "event"
    },
    {
      "inputs": [],
      "name": "owner",
      "outputs": [
        {
          "internalType": "address",
          "name": "",
          "type": "address"
        }
      ],
      "stateMutability": "view",
      "type": "function"
    },
    {
      "inputs": [
        {
          "internalType": "uint256",
          "name": "",
          "type": "uint256"
        }
      ],
      "name": "raffleTickets",
      "outputs": [
        {
          "internalType": "uint256",
          "name": "raffleId",
          "type": "uint256"
        },
        {
          "internalType": "string",
          "name": "raffleName",
          "type": "string"
        },
        {
          "internalType": "address",
          "name": "nftContract",
          "type": "address"
        },
        {
          "internalType": "uint256",
          "name": "nftId",
          "type": "uint256"
        },
        {
          "internalType": "uint256",
          "name": "nftPrice",
          "type": "uint256"
        },
        {
          "internalType": "uint256",
          "name": "ticketSize",
          "type": "uint256"
        },
        {
          "internalType": "uint256",
          "name": "ticketPrice",
          "type": "uint256"
        },
        {
          "internalType": "uint256",
          "name": "participants",
          "type": "uint256"
        },
        {
          "internalType": "uint256",
          "name": "min_ticketSize",
          "type": "uint256"
        },
        {
          "internalType": "address",
          "name": "winner",
          "type": "address"
        },
        {
          "internalType": "uint256",
          "name": "endDate",
          "type": "uint256"
        },
        {
          "internalType": "address",
          "name": "owner",
          "type": "address"
        },
        {
          "internalType": "enum NftRaffleTicket.RaffleStatus",
          "name": "status",
          "type": "uint8"
        }
      ],
      "stateMutability": "view",
      "type": "function"
    },
    {
      "inputs": [
        {
          "internalType": "uint256",
          "name": "",
          "type": "uint256"
        },
        {
          "internalType": "uint256",
          "name": "",
          "type": "uint256"
        }
      ],
      "name": "raffleTicketsById",
      "outputs": [
        {
          "internalType": "uint256",
          "name": "",
          "type": "uint256"
        }
      ],
      "stateMutability": "view",
      "type": "function"
    },
    {
      "inputs": [],
      "name": "raffleTicketsLength",
      "outputs": [
        {
          "internalType": "uint256",
          "name": "",
          "type": "uint256"
        }
      ],
      "stateMutability": "view",
      "type": "function"
    },
    {
      "inputs": [],
      "name": "renounceOwnership",
      "outputs": [],
      "stateMutability": "nonpayable",
      "type": "function"
    },
    {
      "inputs": [
        {
          "internalType": "address",
          "name": "newOwner",
          "type": "address"
        }
      ],
      "name": "transferOwnership",
      "outputs": [],
      "stateMutability": "nonpayable",
      "type": "function"
    },
    {
      "inputs": [
        {
          "internalType": "string",
          "name": "raffleName",
          "type": "string"
        },
        {
          "internalType": "address",
          "name": "nftContract",
          "type": "address"
        },
        {
          "internalType": "uint256",
          "name": "nftId",
          "type": "uint256"
        },
        {
          "internalType": "uint256",
          "name": "nftPrice",
          "type": "uint256"
        },
        {
          "internalType": "uint256",
          "name": "ticketSize",
          "type": "uint256"
        },
        {
          "internalType": "uint256",
          "name": "ticketPrice",
          "type": "uint256"
        },
        {
          "internalType": "uint256",
          "name": "min_ticketSize",
          "type": "uint256"
        },
        {
          "internalType": "address",
          "name": "nftOwner",
          "type": "address"
        },
        {
          "internalType": "uint256",
          "name": "endDate",
          "type": "uint256"
        }
      ],
      "name": "raffleTicketCreated",
      "outputs": [
        {
          "internalType": "uint256",
          "name": "",
          "type": "uint256"
        }
      ],
      "stateMutability": "nonpayable",
      "type": "function"
    },
    {
      "inputs": [
        {
          "internalType": "uint256",
          "name": "raffleId",
          "type": "uint256"
        },
        {
          "internalType": "uint256",
          "name": "numberOfTickets",
          "type": "uint256"
        }
      ],
      "name": "enterParticipant",
      "outputs": [],
      "stateMutability": "payable",
      "type": "function"
    },
    {
      "inputs": [
        {
          "internalType": "uint256",
          "name": "raffleId",
          "type": "uint256"
        }
      ],
      "name": "winnerSelected",
      "outputs": [
        {
          "internalType": "address",
          "name": "",
          "type": "address"
        }
      ],
      "stateMutability": "nonpayable",
      "type": "function"
    },
    {
      "inputs": [
        {
          "internalType": "uint256",
          "name": "raffleId",
          "type": "uint256"
        },
        {
          "internalType": "address",
          "name": "userAddress",
          "type": "address"
        },
        {
          "internalType": "uint256",
          "name": "userIndex",
          "type": "uint256"
        }
      ],
      "name": "claimUserdraw",
      "outputs": [],
      "stateMutability": "payable",
      "type": "function"
    },
    {
      "inputs": [
        {
          "internalType": "uint256",
          "name": "amount",
          "type": "uint256"
        }
      ],
      "name": "changePlatformFee",
      "outputs": [],
      "stateMutability": "nonpayable",
      "type": "function"
    },
    {
      "inputs": [
        {
          "internalType": "address",
          "name": "_tokenAddress",
          "type": "address"
        }
      ],
      "name": "withdrawTokens",
      "outputs": [],
      "stateMutability": "nonpayable",
      "type": "function"
    },
    {
      "inputs": [
        {
          "internalType": "uint256",
          "name": "_amount",
          "type": "uint256"
        }
      ],
      "name": "withdraw",
      "outputs": [],
      "stateMutability": "nonpayable",
      "type": "function"
    },
    {
      "inputs": [
        {
          "internalType": "address",
          "name": "nftContract",
          "type": "address"
        },
        {
          "internalType": "uint256",
          "name": "nftId",
          "type": "uint256"
        }
      ],
      "name": "withdrawNft",
      "outputs": [],
      "stateMutability": "nonpayable",
      "type": "function"
    },
    {
      "inputs": [
        {
          "internalType": "address",
          "name": "userAddress",
          "type": "address"
        }
      ],
      "name": "getRaffleTicketsByUser",
      "outputs": [
        {
          "internalType": "uint256[]",
          "name": "",
          "type": "uint256[]"
        }
      ],
      "stateMutability": "view",
      "type": "function"
    },
    {
      "inputs": [
        {
          "internalType": "uint256",
          "name": "id",
          "type": "uint256"
        }
      ],
      "name": "getRaffleTicketsByRaffle",
      "outputs": [
        {
          "internalType": "uint256[]",
          "name": "",
          "type": "uint256[]"
        }
      ],
      "stateMutability": "view",
      "type": "function"
    },
    {
      "inputs": [
        {
          "internalType": "uint256",
          "name": "id",
          "type": "uint256"
        }
      ],
      "name": "getRaffleParticipant",
      "outputs": [
        {
          "internalType": "address[]",
          "name": "",
          "type": "address[]"
        }
      ],
      "stateMutability": "view",
      "type": "function"
    },
    {
      "inputs": [
        {
          "internalType": "uint256",
          "name": "id",
          "type": "uint256"
        }
      ],
      "name": "raffleStatus",
      "outputs": [
        {
          "internalType": "enum NftRaffleTicket.RaffleStatus",
          "name": "",
          "type": "uint8"
        }
      ],
      "stateMutability": "view",
      "type": "function"
    },
    {
      "inputs": [
        {
          "internalType": "uint256",
          "name": "id",
          "type": "uint256"
        },
        {
          "internalType": "address",
          "name": "userAddress",
          "type": "address"
        }
      ],
      "name": "claimBalance",
      "outputs": [
        {
          "internalType": "uint256",
          "name": "",
          "type": "uint256"
        }
      ],
      "stateMutability": "view",
      "type": "function"
    },
    {
      "inputs": [
        {
          "internalType": "uint256",
          "name": "id",
          "type": "uint256"
        }
      ],
      "name": "getRaffle",
      "outputs": [
        {
          "components": [
            {
              "internalType": "uint256",
              "name": "raffleId",
              "type": "uint256"
            },
            {
              "internalType": "string",
              "name": "raffleName",
              "type": "string"
            },
            {
              "internalType": "address",
              "name": "nftContract",
              "type": "address"
            },
            {
              "internalType": "uint256",
              "name": "nftId",
              "type": "uint256"
            },
            {
              "internalType": "uint256",
              "name": "nftPrice",
              "type": "uint256"
            },
            {
              "internalType": "uint256",
              "name": "ticketSize",
              "type": "uint256"
            },
            {
              "internalType": "uint256",
              "name": "ticketPrice",
              "type": "uint256"
            },
            {
              "internalType": "uint256",
              "name": "participants",
              "type": "uint256"
            },
            {
              "internalType": "uint256",
              "name": "min_ticketSize",
              "type": "uint256"
            },
            {
              "internalType": "address",
              "name": "winner",
              "type": "address"
            },
            {
              "internalType": "uint256",
              "name": "endDate",
              "type": "uint256"
            },
            {
              "internalType": "address",
              "name": "owner",
              "type": "address"
            },
            {
              "internalType": "enum NftRaffleTicket.RaffleStatus",
              "name": "status",
              "type": "uint8"
            }
          ],
          "internalType": "struct NftRaffleTicket.Raffle",
          "name": "",
          "type": "tuple"
        }
      ],
      "stateMutability": "view",
      "type": "function"
    },
    {
      "inputs": [],
      "name": "getRaffleUniqueId",
      "outputs": [
        {
          "internalType": "uint256[]",
          "name": "",
          "type": "uint256[]"
        }
      ],
      "stateMutability": "view",
      "type": "function"
    },
    {
      "inputs": [
        {
          "internalType": "address",
          "name": "_operator",
          "type": "address"
        },
        {
          "internalType": "address",
          "name": "_from",
          "type": "address"
        },
        {
          "internalType": "uint256",
          "name": "_tokenId",
          "type": "uint256"
        },
        {
          "internalType": "bytes",
          "name": "_data",
          "type": "bytes"
        }
      ],
      "name": "onERC721Received",
      "outputs": [
        {
          "internalType": "bytes4",
          "name": "",
          "type": "bytes4"
        }
      ],
      "stateMutability": "nonpayable",
      "type": "function"
    }
  ],
  "bytecode": "0x6080604052600160035560006005553480156200001b57600080fd5b50600080546001600160a01b031916339081178255604051909182917f8be0079c531659141344cd1fd0a4f28419497f9722a3daafe3b4186f6b6457e0908290a3506040805180820190915260138082527f4e465420526166666c6520506c6174666f726d000000000000000000000000006020909201918252620000a391600291620000ca565b50620000bb6001620000c160201b620019f91760201c565b620001ad565b80546001019055565b828054620000d89062000170565b90600052602060002090601f016020900481019282620000fc576000855562000147565b82601f106200011757805160ff191683800117855562000147565b8280016001018555821562000147579182015b82811115620001475782518255916020019190600101906200012a565b506200015592915062000159565b5090565b5b808211156200015557600081556001016200015a565b600181811c908216806200018557607f821691505b60208210811415620001a757634e487b7160e01b600052602260045260246000fd5b50919050565b6124fc80620001bd6000396000f3fe6080604052600436106101355760003560e01c8063b075af72116100ab578063d7a5791a1161006f578063d7a5791a1461038c578063d8fc6519146103ac578063dc4d0b58146103cc578063e4dafec914610405578063f2fde38b14610432578063fa1def011461045257600080fd5b8063b075af72146102f6578063b3eb395d14610316578063ce4d42481461032c578063ce94781a1461034c578063d15d06961461036c57600080fd5b80637f20db38116100fd5780637f20db38146101fc5780638c5fc7871461022a5780638da5cb5b1461023d5780639ec2f7981461026f5780639f1f265e1461029c578063a0942713146102e357600080fd5b8063150b7a021461013a5780632e1a7d4d1461018357806349df728c146101a5578063715018a6146101c557806377c0a014146101da575b600080fd5b34801561014657600080fd5b50610165610155366004611d36565b630a85bd0160e11b949350505050565b6040516001600160e01b031990911681526020015b60405180910390f35b34801561018f57600080fd5b506101a361019e366004611eca565b610472565b005b3480156101b157600080fd5b506101a36101c0366004611d1c565b61051c565b3480156101d157600080fd5b506101a3610666565b3480156101e657600080fd5b506101ef6106da565b60405161017a9190612095565b34801561020857600080fd5b5061021c610217366004611e20565b610732565b60405190815260200161017a565b6101a3610238366004611f25565b610a82565b34801561024957600080fd5b506000546001600160a01b03165b6040516001600160a01b03909116815260200161017a565b34801561027b57600080fd5b5061028f61028a366004611eca565b610c3d565b60405161017a9190612048565b3480156102a857600080fd5b506102d66102b7366004611eca565b6000908152600660205260409020600b0154600160a01b900460ff1690565b60405161017a91906120cd565b6101a36102f1366004611f59565b610ca9565b34801561030257600080fd5b50610257610311366004611eca565b610f64565b34801561032257600080fd5b5061021c60055481565b34801561033857600080fd5b506101ef610347366004611eca565b611436565b34801561035857600080fd5b5061021c610367366004611f59565b611497565b34801561037857600080fd5b5061021c610387366004611efa565b6114c8565b34801561039857600080fd5b506101a36103a7366004611eca565b611541565b3480156103b857600080fd5b506101a36103c7366004611daf565b611570565b3480156103d857600080fd5b506103ec6103e7366004611eca565b611611565b60405161017a9d9c9b9a9998979695949392919061232d565b34801561041157600080fd5b50610425610420366004611eca565b611713565b60405161017a91906121d9565b34801561043e57600080fd5b506101a361044d366004611d1c565b6118a5565b34801561045e57600080fd5b506101ef61046d366004611d1c565b61198f565b6000546001600160a01b031633146104a55760405162461bcd60e51b815260040161049c906121a4565b60405180910390fd5b600080546040516001600160a01b039091169083908381818185875af1925050503d80600081146104f2576040519150601f19603f3d011682016040523d82523d6000602084013e6104f7565b606091505b50509050806105185760405162461bcd60e51b815260040161049c90612147565b5050565b6000546001600160a01b031633146105465760405162461bcd60e51b815260040161049c906121a4565b806001600160a01b03811663a9059cbb6105686000546001600160a01b031690565b6040516370a0823160e01b81523060048201526001600160a01b038516906370a082319060240160206040518083038186803b1580156105a757600080fd5b505afa1580156105bb573d6000803e3d6000fd5b505050506040513d601f19601f820116820180604052508101906105df9190611ee2565b6040516001600160e01b031960e085901b1681526001600160a01b0390921660048301526024820152604401602060405180830381600087803b15801561062557600080fd5b505af1158015610639573d6000803e3d6000fd5b505050506040513d601f19601f8201168201806040525081019061065d9190611dd8565b61051857600080fd5b6000546001600160a01b031633146106905760405162461bcd60e51b815260040161049c906121a4565b600080546040516001600160a01b03909116907f8be0079c531659141344cd1fd0a4f28419497f9722a3daafe3b4186f6b6457e0908390a3600080546001600160a01b0319169055565b6060600480548060200260200160405190810160405280929190818152602001828054801561072857602002820191906000526020600020905b815481526020019060010190808311610714575b5050505050905090565b60003063150b7a028a338b8c60405160200161075091815260200190565b6040516020818303038152906040526040518563ffffffff1660e01b815260040161077e949392919061200b565b602060405180830381600087803b15801561079857600080fd5b505af11580156107ac573d6000803e3d6000fd5b505050506040513d601f19601f820116820180604052508101906107d09190611df8565b50604051632142170760e11b81526001600160a01b038a16906342842e0e9061080190869030908d90600401611fe7565b600060405180830381600087803b15801561081b57600080fd5b505af115801561082f573d6000803e3d6000fd5b50505050610841600180546001019055565b600061085e61084f60015490565b61085833611a02565b90611b25565b6004805460018101825560009182527f8a35acfbc15ff81a39ae7d344fd709f28e8600b4aa8c65c6b64bfe7fe36bd19b01829055604080516101a081018252838152602081018f90526001600160a01b038e811692820192909252606081018d9052608081018c905260a081018b905260c081018a905260e08101839052610100810189905261012081018390526101408101879052908716610160820152919250610180820152600082815260066020908152604090912082518155828201518051919261093592600185019290910190611b55565b5060408201516002820180546001600160a01b03199081166001600160a01b039384161790915560608401516003840155608084015160048085019190915560a0850151600585015560c0850151600685015560e0850151600785015561010085015160088501556101208501516009850180548416918516919091179055610140850151600a850155610160850151600b8501805493841691909416908117845561018086015193926001600160a81b0319161790600160a01b908490811115610a1057634e487b7160e01b600052602160045260246000fd5b021790555050600554610a25915060016123b8565b60055560405181907fa284546f2a1a871f9fadead0386913d027617a75e35a6cc7c30464d243bdb28a90610a6c908e908e908e908e908e908e908e908e908e9042906120db565b60405180910390a29a9950505050505050505050565b60046000848152600660205260409020600b0154600160a01b900460ff166004811115610abf57634e487b7160e01b600052602160045260246000fd5b14610ac957600080fd5b6000838152600760205260409020805433919083908110610afa57634e487b7160e01b600052603260045260246000fd5b6000918252602090912001546001600160a01b031614610b1957600080fd5b6000838152600660205260409020600881015460079091015410610b3c57600080fd5b6001600160a01b0382166000908152600b6020908152604080832086845290915290205434811015610b6d57600080fd5b6000836001600160a01b03168260405160006040518083038185875af1925050503d8060008114610bba576040519150601f19603f3d011682016040523d82523d6000602084013e610bbf565b606091505b5050905080610be05760405162461bcd60e51b815260040161049c90612147565b6001600160a01b0384166000908152600b60209081526040808320888452909152902054610c0e9083611b31565b6001600160a01b039094166000908152600b602090815260408083209783529690529490942092909255505050565b600081815260076020908152604091829020805483518184028101840190945280845260609392830182828015610c9d57602002820191906000526020600020905b81546001600160a01b03168152600190910190602001808311610c7f575b50505050509050919050565b6000828152600660205260409020600a0154421115610d0a5760405162461bcd60e51b815260206004820152601a60248201527f526166666c6520636f6d7065746974696f6e206973204f766572000000000000604482015260640161049c565b60008111610d5a5760405162461bcd60e51b815260206004820181905260248201527f4d696e696d756d2031205469636b65742073686f756c64206265207468657265604482015260640161049c565b60008281526006602081905260409091200154610d779082611b3d565b341015610dc65760405162461bcd60e51b815260206004820152601a60248201527f4d696e696d756d20416d6f756e74206973205265717569726564000000000000604482015260640161049c565b600082815260076020908152604080832080546001810182559084528284200180546001600160a01b031916339081179091558352600b8252808320858452909152902054610e159034611b25565b336000908152600b602090815260408083208684529091528120919091555b81811015610ef157610e4a600180546001019055565b6000610e5560015490565b60008581526008602090815260408083208054600180820183559185528385200185905533808552600984528285208054808401825590865284862001869055858552600a845282852080546001600160a01b0319169091179055888452600690925290912060070154919250610ecc91906123b8565b6000858152600660205260409020600701555080610ee981612455565b915050610e34565b506000828152600660209081526040808320600b01805460ff60a01b1916600160a01b17905533808452600990925291829020915184927fb5fc3170d3e66b78f739dc64edf72cb31037c5bf34c705a7e560bc4327306ea392610f589286929042906122c5565b60405180910390a25050565b6000818152600660205260408120600a01544211610fcf5760405162461bcd60e51b815260206004820152602260248201527f526166666c6520636f6d7065746974696f6e206973204e6f74204f7665722079604482015261195d60f21b606482015260840161049c565b6000828152600660205260409020600b01546001600160a01b03163314806110105750336110056000546001600160a01b031690565b6001600160a01b0316145b61105c5760405162461bcd60e51b815260206004820152601c60248201527f43616c6c6572206973206e6f74204f776e6572206f722041646d696e00000000604482015260640161049c565b600082815260066020526040902060088101546007909101541061131d576000828152600860205260408120805461109333611a02565b61109d9190612470565b815481106110bb57634e487b7160e01b600052603260045260246000fd5b6000918252602080832090910154808352600a825260408084205487855260069093529283902060028101546003909101549351632142170760e11b81529194506001600160a01b03928316939216916342842e0e91611122913091869190600401611fe7565b600060405180830381600087803b15801561113c57600080fd5b505af1158015611150573d6000803e3d6000fd5b5050506000858152600660208190526040822060078101549101549192506111789190611b3d565b9050600061119c606461119660035485611b3d90919063ffffffff16565b90611b49565b90506000336111ab8484611b31565b604051600081818185875af1925050503d80600081146111e7576040519150601f19603f3d011682016040523d82523d6000602084013e6111ec565b606091505b505090508061120d5760405162461bcd60e51b815260040161049c90612147565b600080546040516001600160a01b039091169084908381818185875af1925050503d806000811461125a576040519150601f19603f3d011682016040523d82523d6000602084013e61125f565b606091505b50509050806112805760405162461bcd60e51b815260040161049c90612147565b60008881526006602052604090206009810180546001600160a01b0319166001600160a01b038816179055600b0180546003919060ff60a01b1916600160a01b830217905550604080516001600160a01b0387168152602081018890524281830152905189917f3d210d5ae36955ded2bdf69bd956eb075b7fd07362288c7df1797cd8eb1199bf919081900360600190a250929695505050505050565b60008281526006602052604090819020600b81018054600160a21b60ff60a01b1982161790915560028201546003909201549251632142170760e11b81526001600160a01b03928316936342842e0e9361137f93309391169190600401611fe7565b600060405180830381600087803b15801561139957600080fd5b505af11580156113ad573d6000803e3d6000fd5b505050600083815260066020908152604080832060090180546001600160a01b0319169055805183815291820192909252428183015290518492507f3d210d5ae36955ded2bdf69bd956eb075b7fd07362288c7df1797cd8eb1199bf9181900360600190a2506000908152600660205260409020600901546001600160a01b031690565b919050565b600081815260086020908152604091829020805483518184028101840190945280845260609392830182828015610c9d57602002820191906000526020600020905b8154815260200190600101908083116114785750505050509050919050565b600860205281600052604060002081815481106114b357600080fd5b90600052602060002001600091509150505481565b600060046000848152600660205260409020600b0154600160a01b900460ff16600481111561150757634e487b7160e01b600052602160045260246000fd5b141561153757506001600160a01b0381166000908152600b6020908152604080832085845290915290205461153b565b5060005b92915050565b6000546001600160a01b0316331461156b5760405162461bcd60e51b815260040161049c906121a4565b600355565b6000546001600160a01b0316331461159a5760405162461bcd60e51b815260040161049c906121a4565b816001600160a01b03166342842e0e306115bc6000546001600160a01b031690565b846040518463ffffffff1660e01b81526004016115db93929190611fe7565b600060405180830381600087803b1580156115f557600080fd5b505af1158015611609573d6000803e3d6000fd5b505050505050565b600660205260009081526040902080546001820180549192916116339061241a565b80601f016020809104026020016040519081016040528092919081815260200182805461165f9061241a565b80156116ac5780601f10611681576101008083540402835291602001916116ac565b820191906000526020600020905b81548152906001019060200180831161168f57829003601f168201915b50505050600283015460038401546004850154600586015460068701546007880154600889015460098a0154600a8b0154600b909b0154999a6001600160a01b039889169a979950959794969395929491939082169291811690600160a01b900460ff168d565b61171b611bd9565b60066000838152602001908152602001600020604051806101a0016040529081600082015481526020016001820180546117549061241a565b80601f01602080910402602001604051908101604052809291908181526020018280546117809061241a565b80156117cd5780601f106117a2576101008083540402835291602001916117cd565b820191906000526020600020905b8154815290600101906020018083116117b057829003601f168201915b505050918352505060028201546001600160a01b03908116602083015260038301546040830152600480840154606084015260058401546080840152600684015460a0840152600784015460c0840152600884015460e084015260098401548216610100840152600a840154610120840152600b84015491821661014084015261016090920191600160a01b90910460ff169081111561187d57634e487b7160e01b600052602160045260246000fd5b600481111561189c57634e487b7160e01b600052602160045260246000fd5b90525092915050565b6000546001600160a01b031633146118cf5760405162461bcd60e51b815260040161049c906121a4565b6001600160a01b0381166119345760405162461bcd60e51b815260206004820152602660248201527f4f776e61626c653a206e6577206f776e657220697320746865207a65726f206160448201526564647265737360d01b606482015260840161049c565b600080546040516001600160a01b03808516939216917f8be0079c531659141344cd1fd0a4f28419497f9722a3daafe3b4186f6b6457e091a3600080546001600160a01b0319166001600160a01b0392909216919091179055565b6001600160a01b038116600090815260096020908152604091829020805483518184028101840190945280845260609392830182828015610c9d57602002820191906000526020600020908154815260200190600101908083116114785750505050509050919050565b80546001019055565b6040516bffffffffffffffffffffffff19606083901b1660208201526000908190439042906034016040516020818303038152906040528051906020012060001c611a4d91906123d0565b6040516bffffffffffffffffffffffff194160601b166020820152459042906034016040516020818303038152906040528051906020012060001c611a9291906123d0565b611a9c44426123b8565b611aa691906123b8565b611ab091906123b8565b611aba91906123b8565b611ac491906123b8565b604051602001611ad691815260200190565b60408051601f1981840301815291905280516020909101209050611b02670de0b6b3a7640000826123d0565b611b1490670de0b6b3a76400006123e4565b611b1e9082612403565b9392505050565b6000611b1e82846123b8565b6000611b1e8284612403565b6000611b1e82846123e4565b6000611b1e82846123d0565b828054611b619061241a565b90600052602060002090601f016020900481019282611b835760008555611bc9565b82601f10611b9c57805160ff1916838001178555611bc9565b82800160010185558215611bc9579182015b82811115611bc9578251825591602001919060010190611bae565b50611bd5929150611c7a565b5090565b604051806101a00160405280600081526020016060815260200160006001600160a01b0316815260200160008152602001600081526020016000815260200160008152602001600081526020016000815260200160006001600160a01b031681526020016000815260200160006001600160a01b0316815260200160006004811115611c7557634e487b7160e01b600052602160045260246000fd5b905290565b5b80821115611bd55760008155600101611c7b565b600067ffffffffffffffff80841115611caa57611caa6124b0565b604051601f8501601f19908116603f01168101908282118183101715611cd257611cd26124b0565b81604052809350858152868686011115611ceb57600080fd5b858560208301376000602087830101525050509392505050565b80356001600160a01b038116811461143157600080fd5b600060208284031215611d2d578081fd5b611b1e82611d05565b60008060008060808587031215611d4b578283fd5b611d5485611d05565b9350611d6260208601611d05565b925060408501359150606085013567ffffffffffffffff811115611d84578182fd5b8501601f81018713611d94578182fd5b611da387823560208401611c8f565b91505092959194509250565b60008060408385031215611dc1578182fd5b611dca83611d05565b946020939093013593505050565b600060208284031215611de9578081fd5b81518015158114611b1e578182fd5b600060208284031215611e09578081fd5b81516001600160e01b031981168114611b1e578182fd5b60008060008060008060008060006101208a8c031215611e3e578485fd5b893567ffffffffffffffff811115611e54578586fd5b8a01601f81018c13611e64578586fd5b611e738c823560208401611c8f565b995050611e8260208b01611d05565b975060408a0135965060608a0135955060808a0135945060a08a0135935060c08a01359250611eb360e08b01611d05565b91506101008a013590509295985092959850929598565b600060208284031215611edb578081fd5b5035919050565b600060208284031215611ef3578081fd5b5051919050565b60008060408385031215611f0c578182fd5b82359150611f1c60208401611d05565b90509250929050565b600080600060608486031215611f39578283fd5b83359250611f4960208501611d05565b9150604084013590509250925092565b60008060408385031215611f6b578182fd5b50508035926020909101359150565b60008151808452815b81811015611f9f57602081850181015186830182015201611f83565b81811115611fb05782602083870101525b50601f01601f19169290920160200192915050565b60058110611fe357634e487b7160e01b600052602160045260246000fd5b9052565b6001600160a01b039384168152919092166020820152604081019190915260600190565b6001600160a01b038581168252841660208201526040810183905260806060820181905260009061203e90830184611f7a565b9695505050505050565b6020808252825182820181905260009190848201906040850190845b818110156120895783516001600160a01b031683529284019291840191600101612064565b50909695505050505050565b6020808252825182820181905260009190848201906040850190845b81811015612089578351835292840192918401916001016120b1565b6020810161153b8284611fc5565b60006101408083526120ef8184018e611f7a565b6001600160a01b039c8d166020850152604084019b909b5250506060810197909752608087019590955260a086019390935260c085019190915290941660e08301526101008201939093526101200191909152919050565b6020808252603a908201527f416464726573733a20756e61626c6520746f2073656e642076616c75652c207260408201527f6563697069656e74206d61792068617665207265766572746564000000000000606082015260800190565b6020808252818101527f4f776e61626c653a2063616c6c6572206973206e6f7420746865206f776e6572604082015260600190565b6020815281516020820152600060208301516101a08060408501526122026101c0850183611f7a565b9150604085015161221e60608601826001600160a01b03169052565b5060608501516080850152608085015160a085015260a085015160c085015260c085015160e085015260e0850151610100818187015280870151915050610120818187015280870151915050610140612281818701836001600160a01b03169052565b8601516101608681019190915286015190506101806122aa818701836001600160a01b03169052565b86015190506122bb85830182611fc5565b5090949350505050565b600060808201868352602060018060a01b038716818501526080604085015281865480845260a0860191508785528285209350845b81811015612316578454835260019485019492840192016122fa565b505080935050505082606083015295945050505050565b8d81526101a0602082015260006123486101a083018f611f7a565b905060018060a01b03808e1660408401528c60608401528b60808401528a60a08401528960c08401528860e08401528761010084015280871661012084015285610140840152808516610160840152506123a6610180830184611fc5565b9e9d5050505050505050505050505050565b600082198211156123cb576123cb612484565b500190565b6000826123df576123df61249a565b500490565b60008160001904831182151516156123fe576123fe612484565b500290565b60008282101561241557612415612484565b500390565b600181811c9082168061242e57607f821691505b6020821081141561244f57634e487b7160e01b600052602260045260246000fd5b50919050565b600060001982141561246957612469612484565b5060010190565b60008261247f5761247f61249a565b500690565b634e487b7160e01b600052601160045260246000fd5b634e487b7160e01b600052601260045260246000fd5b634e487b7160e01b600052604160045260246000fdfea2646970667358221220cee605c8a3ce97a34acbe3a72170a7ab05151e8154fa449c16453239071034f764736f6c63430008040033",
  "immutableReferences": {},
  "source": "// SPDX-License-Identifier: MIT\n\npragma solidity ^0.8.0;\n\nimport \"@openzeppelin/contracts/access/Ownable.sol\";\nimport \"@openzeppelin/contracts/token/ERC721/ERC721.sol\";\nimport \"@openzeppelin/contracts/token/ERC721/IERC721Receiver.sol\";\nimport \"@openzeppelin/contracts/utils/math/SafeMath.sol\";\nimport \"@openzeppelin/contracts/token/ERC20/IERC20.sol\";\nimport \"@openzeppelin/contracts/utils/Address.sol\";\nimport \"@openzeppelin/contracts/token/ERC721/IERC721Receiver.sol\";\nimport \"@openzeppelin/contracts/utils/Counters.sol\";\n\n\ncontract NftRaffleTicket is Ownable {\n  using Counters for Counters.Counter;\n  Counters.Counter private TicketId;\n  using SafeMath for uint256; \n  using Address for address payable;\n  string platformName;\n\n  constructor(){\n    platformName = \"NFT Raffle Platform\";\n    TicketId.increment();\n  }\n  \n  enum RaffleStatus {\n    INITIALIZE,\n    ONGOING,\n    WINNER_NOT_DECLARED,\n    WINNER_DECLARED,\n    DRAW\n  }\n\n  struct Raffle {\n    uint256 raffleId;\n    string raffleName;\n    address nftContract;\n    uint256 nftId;\n    uint256 nftPrice;\n    uint256 ticketSize;\n    uint256 ticketPrice;\n    uint256 participants;\n    uint256 min_ticketSize;\n    address winner;\n    uint endDate;\n    address owner;\n    RaffleStatus status;\n  }\n\n  uint platformFee = 1;\n  uint[] raffleUniqueId;\n  uint256 public raffleTicketsLength = 0;\n  mapping(uint256 => Raffle) public raffleTickets;\n  mapping(uint256 => address[]) raffleParticipant;\n  mapping(uint => uint[]) public raffleTicketsById;\n  mapping(address => uint[]) raffleTicketsByParticipant;\n  mapping(uint => address) ticketIdByUser;\n  mapping(address => mapping(uint => uint)) participantAmount;\n  \n  event RaffleTicketCreated(uint indexed raffleId, string raffleName, address nftContract, uint256 nftId, uint nftPrice, uint256 ticketSize, uint256 ticketPrice, uint256 min_ticketSize, address fromAddress, uint endDate, uint timestamp);\n  event EnterParticipant(uint256 indexed raffleId, uint256 numberOfTickets, address userAddress, uint[] ticketId, uint timestamp);\n  event WinnerSelected(uint256 indexed raffleId, address winnerAddress, uint256 ticketId, uint timestamp);\n  \n////////////////////// External Function //////////////////////\n  function raffleTicketCreated(string memory raffleName, address nftContract, uint256 nftId, uint nftPrice, uint256 ticketSize, uint256 ticketPrice, uint256 min_ticketSize, address nftOwner, uint endDate) external returns(uint) {\n    IERC721Receiver(address(this)).onERC721Received(nftContract, _msgSender(), nftId, abi.encodePacked(nftId));\n    ERC721(nftContract).safeTransferFrom(nftOwner, address(this), nftId);\n    TicketId.increment();\n    uint raffleId = randomSelection(msg.sender).add(TicketId.current());\n    raffleUniqueId.push(raffleId);\n    raffleTickets[raffleId] = Raffle(raffleId, raffleName, nftContract, nftId, nftPrice, ticketSize, ticketPrice, 0, min_ticketSize, address(0), endDate, nftOwner, RaffleStatus(0));\n    raffleTicketsLength = raffleTicketsLength + 1;\n    emit RaffleTicketCreated(raffleId, raffleName, nftContract, nftId, nftPrice, ticketSize, ticketPrice, min_ticketSize, nftOwner, endDate, block.timestamp);\n    return raffleId;\n  }\n\n\nfunction enterParticipant(uint256 raffleId, uint256 numberOfTickets) external payable {\n    require(block.timestamp <= raffleTickets[raffleId].endDate, \"Raffle competition is Over\");\n    require(numberOfTickets > 0, \"Minimum 1 Ticket should be there\");\n    require(msg.value >= (raffleTickets[raffleId].ticketPrice).mul(numberOfTickets), \"Minimum Amount is Required\");\n    raffleParticipant[raffleId].push(_msgSender());\n    participantAmount[_msgSender()][raffleId] = (participantAmount[_msgSender()][raffleId]).add(msg.value);\n    for (uint256 i = 0; i < numberOfTickets; i++) {\n      TicketId.increment();\n      uint ticketId = TicketId.current();\n      raffleTicketsById[raffleId].push(ticketId);\n      raffleTicketsByParticipant[_msgSender()].push(ticketId);\n      ticketIdByUser[ticketId] = _msgSender();\n      raffleTickets[raffleId].participants = raffleTickets[raffleId].participants + 1;\n    }\n    raffleTickets[raffleId].status = RaffleStatus(1);\n    emit EnterParticipant(raffleId, numberOfTickets, _msgSender(), raffleTicketsByParticipant[_msgSender()], block.timestamp);\n}\n\nfunction winnerSelected(uint256 raffleId) external returns(address) {\n    require(block.timestamp > raffleTickets[raffleId].endDate, \"Raffle competition is Not Over yet\");\n    require(raffleTickets[raffleId].owner == msg.sender || owner() == msg.sender, \"Caller is not Owner or Admin\");\n    if (raffleTickets[raffleId].participants >= raffleTickets[raffleId].min_ticketSize){\n       uint winnerTicketId = raffleTicketsById[raffleId][randomSelection(msg.sender) % raffleTicketsById[raffleId].length];\n       address winner = ticketIdByUser[winnerTicketId];\n       ERC721(raffleTickets[raffleId].nftContract).safeTransferFrom(address(this), winner, raffleTickets[raffleId].nftId);\n       uint totalAmount = (raffleTickets[raffleId].ticketPrice).mul(raffleTickets[raffleId].participants);\n       uint platformAmount = totalAmount.mul(platformFee).div(100);\n       (bool success, ) = _msgSender().call{ value: totalAmount.sub(platformAmount) }(\"\");\n       require(success, \"Address: unable to send value, recipient may have reverted\");\n       (bool ownerPay, ) = owner().call{ value: platformAmount }(\"\");\n       require(ownerPay, \"Address: unable to send value, recipient may have reverted\");\n       raffleTickets[raffleId].winner = winner;\n       raffleTickets[raffleId].status = RaffleStatus(3);\n       emit WinnerSelected(raffleId, winner, winnerTicketId, block.timestamp);\n       return winner;\n    } else {\n      raffleTickets[raffleId].status = RaffleStatus(4);\n      ERC721(raffleTickets[raffleId].nftContract).safeTransferFrom(address(this), raffleTickets[raffleId].owner, raffleTickets[raffleId].nftId);\n      raffleTickets[raffleId].winner = address(0);\n      emit WinnerSelected(raffleId, address(0), 0, block.timestamp);\n      return raffleTickets[raffleId].winner;\n  }\n}\n\nfunction claimUserdraw(uint raffleId, address userAddress, uint userIndex) external payable{\n  require(raffleTickets[raffleId].status == RaffleStatus(4));\n  require(raffleParticipant[raffleId][userIndex] == _msgSender());\n  require(raffleTickets[raffleId].participants < raffleTickets[raffleId].min_ticketSize);\n  uint amount = participantAmount[userAddress][raffleId];\n  require(msg.value <= amount);\n  (bool userWithdraw, ) = userAddress.call{ value: amount }(\"\");\n  require(userWithdraw, \"Address: unable to send value, recipient may have reverted\");\n  participantAmount[userAddress][raffleId] = participantAmount[userAddress][raffleId].sub(amount);\n}\n\nfunction changePlatformFee(uint amount) external onlyOwner {\n  platformFee = amount;\n}\n\n////////////////////// Withdraw Function //////////////////////\nfunction withdrawTokens(address _tokenAddress) public onlyOwner {\n    IERC20 tokenAddress = IERC20(_tokenAddress);\n    require(tokenAddress.transfer(owner(), tokenAddress.balanceOf(address(this))));\n}\n\nfunction withdraw(uint _amount) public onlyOwner {\n    (bool extravalue, ) = owner().call{ value: _amount }(\"\");\n    require(extravalue, \"Address: unable to send value, recipient may have reverted\");\n}\n\nfunction withdrawNft(address nftContract, uint nftId) public onlyOwner {\n    ERC721(nftContract).safeTransferFrom(address(this), owner(), nftId);\n}\n\n////////////////////// View Function //////////////////////\nfunction getRaffleTicketsByUser(address userAddress) public view returns(uint[] memory){\n  return raffleTicketsByParticipant[userAddress];\n}\n\nfunction getRaffleTicketsByRaffle(uint id) public view returns(uint[] memory){\n  return raffleTicketsById[id];\n} \n\nfunction getRaffleParticipant(uint id) public view returns (address[] memory){\n  return raffleParticipant[id];\n}\n\nfunction raffleStatus(uint id) public view returns(RaffleStatus) {\n    return raffleTickets[id].status;\n}\n\nfunction claimBalance(uint id, address userAddress) public view returns(uint) {\n  if (raffleTickets[id].status == RaffleStatus(4)) {\n    return participantAmount[userAddress][id];\n  } else {\n    return 0;\n  }\n}\n\nfunction getRaffle(uint id) public view returns(Raffle memory) {\n  return raffleTickets[id];\n}\n\nfunction getRaffleUniqueId() public view returns(uint[] memory) {\n  return raffleUniqueId;\n}\n\nfunction onERC721Received( address _operator, address _from, uint256 _tokenId, bytes memory _data) public returns(bytes4) {\n    return this.onERC721Received.selector;\n}\n\n////////////////////// Internal Function //////////////////////\n\nfunction randomSelection(address userId) internal view returns(uint) {\n    uint uniqueId = uint(keccak256(abi.encodePacked(block.timestamp + block.difficulty + \n    ((uint(keccak256(abi.encodePacked(block.coinbase)))) / (block.timestamp)) + block.gaslimit + ((uint(keccak256(abi.encodePacked(userId)))) / (block.timestamp)) + block.number)));\n    return (uniqueId - ((uniqueId / 1000000000000000000) * 1000000000000000000));\n}\n}\n",
  "sourcePath": "/Users/akshaypatil/Documents/werewolf/nft-lottery/nft-raffle-tickets/nft-raffle-tickets/contracts/NftRaffleTicket.sol",
  "compiler": {
    "name": "solc",
    "version": "0.8.4+commit.c7e474f2.Emscripten.clang"
  },
  "schemaVersion": "3.3.1",
  "updatedAt": "2021-05-28T23:49:37.039Z",
  "devdoc": {
    "kind": "dev",
    "methods": {
      "owner()": {
        "details": "Returns the address of the current owner."
      },
      "renounceOwnership()": {
        "details": "Leaves the contract without owner. It will not be possible to call `onlyOwner` functions anymore. Can only be called by the current owner. NOTE: Renouncing ownership will leave the contract without an owner, thereby removing any functionality that is only available to the owner."
      },
      "transferOwnership(address)": {
        "details": "Transfers ownership of the contract to a new account (`newOwner`). Can only be called by the current owner."
      }
    },
    "version": 1
  },
  "userdoc": {
    "kind": "user",
    "methods": {},
    "version": 1
  }
}